{
  "contractName": "MerkelTree",
  "abi": [
    {
      "constant": true,
      "inputs": [],
      "name": "MT",
      "outputs": [
        {
          "name": "cur",
          "type": "uint256"
        }
      ],
      "payable": false,
      "stateMutability": "view",
      "type": "function"
    },
    {
      "constant": true,
      "inputs": [],
      "name": "no_leaves",
      "outputs": [
        {
          "name": "",
          "type": "uint256"
        }
      ],
      "payable": false,
      "stateMutability": "view",
      "type": "function"
    },
    {
      "constant": true,
      "inputs": [
        {
          "name": "",
          "type": "uint256"
        }
      ],
      "name": "roots",
      "outputs": [
        {
          "name": "",
          "type": "bool"
        }
      ],
      "payable": false,
      "stateMutability": "view",
      "type": "function"
    },
    {
      "constant": true,
      "inputs": [],
      "name": "tree_depth",
      "outputs": [
        {
          "name": "",
          "type": "uint256"
        }
      ],
      "payable": false,
      "stateMutability": "view",
      "type": "function"
    },
    {
      "inputs": [
        {
          "name": "_mimc",
          "type": "address"
        }
      ],
      "payable": false,
      "stateMutability": "nonpayable",
      "type": "constructor"
    },
    {
      "anonymous": false,
      "inputs": [
        {
          "indexed": false,
          "name": "index",
          "type": "uint256"
        }
      ],
      "name": "LeafAdded",
      "type": "event"
    },
    {
      "anonymous": false,
      "inputs": [
        {
          "indexed": false,
          "name": "",
          "type": "uint256"
        }
      ],
      "name": "TestMimc",
      "type": "event"
    },
    {
      "anonymous": false,
      "inputs": [
        {
          "indexed": false,
          "name": "",
          "type": "uint256[8]"
        },
        {
          "indexed": false,
          "name": "",
          "type": "uint256[8]"
        }
      ],
      "name": "MerkleProof",
      "type": "event"
    },
    {
      "constant": false,
      "inputs": [
        {
          "name": "com",
          "type": "uint256"
        }
      ],
      "name": "insert",
      "outputs": [
        {
          "name": "",
          "type": "uint256"
        }
      ],
      "payable": false,
      "stateMutability": "nonpayable",
      "type": "function"
    },
    {
      "constant": false,
      "inputs": [
        {
          "name": "index",
          "type": "uint256"
        }
      ],
      "name": "getMerkelProof",
      "outputs": [
        {
          "name": "",
          "type": "uint256[8]"
        },
        {
          "name": "",
          "type": "uint256[8]"
        }
      ],
      "payable": false,
      "stateMutability": "nonpayable",
      "type": "function"
    },
    {
      "constant": false,
      "inputs": [
        {
          "name": "input",
          "type": "uint256"
        },
        {
          "name": "sk",
          "type": "uint256"
        }
      ],
      "name": "getMimc",
      "outputs": [
        {
          "name": "",
          "type": "uint256"
        }
      ],
      "payable": false,
      "stateMutability": "nonpayable",
      "type": "function"
    },
    {
      "constant": false,
      "inputs": [
        {
          "name": "leaf",
          "type": "uint256"
        },
        {
          "name": "depth",
          "type": "uint256"
        }
      ],
      "name": "getUniqueLeaf",
      "outputs": [
        {
          "name": "",
          "type": "uint256"
        }
      ],
      "payable": false,
      "stateMutability": "nonpayable",
      "type": "function"
    },
    {
      "constant": false,
      "inputs": [],
      "name": "updateTree",
      "outputs": [
        {
          "name": "root",
          "type": "uint256"
        }
      ],
      "payable": false,
      "stateMutability": "nonpayable",
      "type": "function"
    },
    {
      "constant": true,
      "inputs": [
        {
          "name": "j",
          "type": "uint256"
        },
        {
          "name": "k",
          "type": "uint256"
        }
      ],
      "name": "getLeaf",
      "outputs": [
        {
          "name": "root",
          "type": "uint256"
        }
      ],
      "payable": false,
      "stateMutability": "view",
      "type": "function"
    },
    {
      "constant": true,
      "inputs": [],
      "name": "getRoot",
      "outputs": [
        {
          "name": "root",
          "type": "uint256"
        }
      ],
      "payable": false,
      "stateMutability": "view",
      "type": "function"
    }
  ],
  "bytecode": "0x6080604052600860015561010060025534801561001b57600080fd5b50604051602080610d208339810180604052602081101561003b57600080fd5b81019080805190602001909291905050508061090460006101000a81548173ffffffffffffffffffffffffffffffffffffffff021916908373ffffffffffffffffffffffffffffffffffffffff16021790555050610c828061009e6000396000f3fe6080604052600436106100af576000357c0100000000000000000000000000000000000000000000000000000000900463ffffffff1680632fb2798d146100b45780634a1f11a71461010d5780634d556bed146101385780635ca1e1651461019157806367615a69146101bc57806390b5561d146102155780639ad1ee9d14610264578063a03515fd1461030a578063c2b40ae414610335578063e08dfff814610388578063ee427b1d146103b3575b600080fd5b3480156100c057600080fd5b506100f7600480360360408110156100d757600080fd5b8101908080359060200190929190803590602001909291905050506103de565b6040518082815260200191505060405180910390f35b34801561011957600080fd5b5061012261040f565b6040518082815260200191505060405180910390f35b34801561014457600080fd5b5061017b6004803603604081101561015b57600080fd5b81019080803590602001909291908035906020019092919050505061041b565b6040518082815260200191505060405180910390f35b34801561019d57600080fd5b506101a6610522565b6040518082815260200191505060405180910390f35b3480156101c857600080fd5b506101ff600480360360408110156101df57600080fd5b810190808035906020019092919080359060200190929190505050610553565b6040518082815260200191505060405180910390f35b34801561022157600080fd5b5061024e6004803603602081101561023857600080fd5b810190808035906020019092919050505061073d565b6040518082815260200191505060405180910390f35b34801561027057600080fd5b5061029d6004803603602081101561028757600080fd5b81019080803590602001909291905050506107f0565b6040518083600860200280838360005b838110156102c85780820151818401526020810190506102ad565b5050505090500182600860200280838360005b838110156102f65780820151818401526020810190506102db565b505050509050019250505060405180910390f35b34801561031657600080fd5b5061031f6109ba565b6040518082815260200191505060405180910390f35b34801561034157600080fd5b5061036e6004803603602081101561035857600080fd5b81019080803590602001909291905050506109c0565b604051808215151515815260200191505060405180910390f35b34801561039457600080fd5b5061039d6109e0565b6040518082815260200191505060405180910390f35b3480156103bf57600080fd5b506103c86109e6565b6040518082815260200191505060405180910390f35b60006003600101836009811015156103f257fe5b6101000201826101008110151561040557fe5b0154905092915050565b60038060000154905081565b6000808314156105195760008090505b828110156105175761090460009054906101000a900473ffffffffffffffffffffffffffffffffffffffff1673ffffffffffffffffffffffffffffffffffffffff1663d15ca10985866040518363ffffffff167c01000000000000000000000000000000000000000000000000000000000281526004018083815260200182815260200192505050602060405180830381600087803b1580156104cd57600080fd5b505af11580156104e1573d6000803e3d6000fd5b505050506040513d60208110156104f757600080fd5b81019080805190602001909291905050509350808060010191505061042b565b505b82905092915050565b6000600360010160015460098110151561053857fe5b610100020160006101008110151561054c57fe5b0154905090565b60007fcf925dbffc79dd560a14e9fb74c7ba7fa5bef0e98c9fbd3c3b4a498c302c7ac161090460009054906101000a900473ffffffffffffffffffffffffffffffffffffffff1673ffffffffffffffffffffffffffffffffffffffff1663d15ca10985856040518363ffffffff167c01000000000000000000000000000000000000000000000000000000000281526004018083815260200182815260200192505050602060405180830381600087803b15801561061057600080fd5b505af1158015610624573d6000803e3d6000fd5b505050506040513d602081101561063a57600080fd5b81019080805190602001909291905050506040518082815260200191505060405180910390a161090460009054906101000a900473ffffffffffffffffffffffffffffffffffffffff1673ffffffffffffffffffffffffffffffffffffffff1663d15ca10984846040518363ffffffff167c01000000000000000000000000000000000000000000000000000000000281526004018083815260200182815260200192505050602060405180830381600087803b1580156106fa57600080fd5b505af115801561070e573d6000803e3d6000fd5b505050506040513d602081101561072457600080fd5b8101908080519060200190929190505050905092915050565b60006002546003600001541415151561075557600080fd5b816003600101600060098110151561076957fe5b61010002016003600001546101008110151561078157fe5b018190555061078e6109e6565b507fee14d40b05aa42dee41bd28416dcb3ca632a33e9f6ea33a4bca7ffcb959388586003600001546040518082815260200191505060405180910390a16003600001600081548092919060010191905055506001600360000154039050919050565b6107f8610c32565b610800610c32565b610808610c32565b610810610c32565b60008090505b60015481101561091d57600060028781151561082e57fe5b06141561089d576001838260088110151561084557fe5b60200201818152505061088160036001018260098110151561086357fe5b6101000201600188016101008110151561087957fe5b01548261041b565b828260088110151561088f57fe5b602002018181525050610901565b600083826008811015156108ad57fe5b6020020181815250506108e96003600101826009811015156108cb57fe5b610100020160018803610100811015156108e157fe5b01548261041b565b82826008811015156108f757fe5b6020020181815250505b60028681151561090d57fe5b0495508080600101915050610816565b507fb32f3ab38e24247edb1bf988fa9b37c62ef392f712e2ec5537057af901fef39c81836040518083600860200280838360005b8381101561096c578082015181840152602081019050610951565b5050505090500182600860200280838360005b8381101561099a57808201518184015260208101905061097f565b505050509050019250505060405180910390a18082935093505050915091565b60025481565b60006020528060005260406000206000915054906101000a900460ff1681565b60015481565b600080600360000154905060008060008090505b600154811015610bff576000600285811515610a1257fe5b0490506000600286811515610a2357fe5b061415610a8d57600360010182600981101515610a3c57fe5b61010002018561010081101515610a4f57fe5b01549350610a86600360010183600981101515610a6857fe5b61010002016001870161010081101515610a7e57fe5b01548361041b565b9250610aec565b610ac0600360010183600981101515610aa257fe5b61010002016001870361010081101515610ab857fe5b01548361041b565b9350600360010182600981101515610ad457fe5b61010002018561010081101515610ae757fe5b015492505b61090460009054906101000a900473ffffffffffffffffffffffffffffffffffffffff1673ffffffffffffffffffffffffffffffffffffffff1663d15ca10985856040518363ffffffff167c01000000000000000000000000000000000000000000000000000000000281526004018083815260200182815260200192505050602060405180830381600087803b158015610b8657600080fd5b505af1158015610b9a573d6000803e3d6000fd5b505050506040513d6020811015610bb057600080fd5b8101908080519060200190929190505050600360010160018401600981101515610bd657fe5b61010002018261010081101515610be957fe5b01819055508094505080806001019150506109fa565b506003600101600154600981101515610c1457fe5b6101000201600061010081101515610c2857fe5b0154935050505090565b6101006040519081016040528060089060208202803883398082019150509050509056fea165627a7a72305820fde468b036127448d5cfd113097622bc8a3b6ae4460f2f873d22d575f78fdc360029",
  "source": "pragma solidity ^0.5.0;\n\nimport { MiMCpe7_generated } from \"./mimc.sol\";\n\ncontract IMimc { \n  function MiMCpe7(uint256 in_x,uint256 in_k) public returns(uint256 out_x) {\n    return MiMCpe7_generated.MiMCpe7(in_x, in_k);\n  }\n}\n\ncontract MerkelTree {\n    mapping (uint256 => bool) public roots; // 记录Merkle tree上的root\n    uint public tree_depth = 8; \n    uint public no_leaves = 256; \n    struct Mtree {\n        uint256 cur;\n        uint256[256][9] leaves2; \n    }\n\n    Mtree public MT;\n\n    IMimc mimc;\n\n    event LeafAdded(uint256 index);\n    \n    event TestMimc(uint256);\n    \n    event MerkleProof(uint256[8] , uint256[8] );\n\n    constructor(address _mimc) public{\n        mimc = IMimc(_mimc);\n    }\n\n    //Merkletree.append(com)\n    // 插入 commitment叶子节点\n    function insert(uint256 com) public returns (uint256 ) {\n        require (MT.cur != no_leaves );\n        MT.leaves2[0][MT.cur] = com;\n        updateTree();\n        emit LeafAdded(MT.cur);\n        MT.cur++;\n   \n        return MT.cur-1;\n    }\n\n\n    // 返回path，index\n    function getMerkelProof(uint256 index) public returns (uint256[8] memory, uint256[8] memory) {\n\n        uint256[8] memory address_bits;\n        uint256[8] memory merkelProof;\n\n        for (uint256 i=0 ; i < tree_depth; i++) {\n            // address_bits[i] = index%2;\n            if (index%2 == 0) {\n                address_bits[i]=1;\n                merkelProof[i] = getUniqueLeaf(MT.leaves2[i][index + 1],i);\n            }\n            else {\n                address_bits[i]=0;\n                merkelProof[i] = getUniqueLeaf(MT.leaves2[i][index - 1],i);\n            }\n            index = uint256(index/2);\n        }\n        emit MerkleProof(merkelProof, address_bits);\n        return(merkelProof, address_bits);   \n    }\n    \n    function getMimc(uint256 input, uint256 sk) public returns ( uint256) { \n        emit TestMimc(mimc.MiMCpe7(input , sk));\n        return mimc.MiMCpe7(input , sk); \n    }\n\n    function getUniqueLeaf(uint256 leaf, uint256 depth) public returns (uint256) {\n        if (leaf == 0) {\n            for (uint256 i=0;i<depth;i++) {\n                leaf = mimc.MiMCpe7(leaf, leaf);\n            }\n        }\n        return (leaf);\n    }\n    \n    // 更新Merkle  tree\n    function updateTree() public returns(uint256 root) {\n        uint256 CurrentIndex = MT.cur;\n        uint256 leaf1;\n        uint256 leaf2;\n        for (uint256 i=0 ; i < tree_depth; i++) {\n            uint256 NextIndex = CurrentIndex/2;\n            if (CurrentIndex%2 == 0) {\n                leaf1 =  MT.leaves2[i][CurrentIndex];\n                leaf2 = getUniqueLeaf(MT.leaves2[i][CurrentIndex + 1], i);\n            } else {\n                leaf1 = getUniqueLeaf(MT.leaves2[i][CurrentIndex - 1], i);\n                leaf2 =  MT.leaves2[i][CurrentIndex];\n            }\n            MT.leaves2[i+1][NextIndex] = mimc.MiMCpe7( leaf1, leaf2);\n            CurrentIndex = NextIndex;\n        }\n        return MT.leaves2[tree_depth][0];\n    }\n    \n   \n    function getLeaf(uint256 j,uint256 k) public view returns (uint256 root) {\n        root = MT.leaves2[j][k];\n    }\n\n    // 返回Merkle tree root\n    function getRoot() public view returns(uint256 root) {\n        root = MT.leaves2[tree_depth][0];\n    }\n\n}",
  "sourcePath": "/Users/xuzzz/Desktop/test/src/contracts/merkleTree.sol",
  "compiler": {
    "name": "solc",
    "version": "0.5.0+commit.1d4f565a.Emscripten.clang"
  },
  "schemaVersion": "3.4.11",
  "updatedAt": "2022-12-03T08:16:38.728Z",
  "devdoc": {
    "methods": {}
  },
  "userdoc": {
    "methods": {}
  }
}