{
  "contractName": "mix",
  "abi": [
    {
      "constant": true,
      "inputs": [
        {
          "name": "",
          "type": "uint256"
        }
      ],
      "name": "nullifierHashes",
      "outputs": [
        {
          "name": "",
          "type": "bool"
        }
      ],
      "payable": false,
      "stateMutability": "view",
      "type": "function"
    },
    {
      "constant": true,
      "inputs": [
        {
          "name": "j",
          "type": "uint256"
        },
        {
          "name": "k",
          "type": "uint256"
        }
      ],
      "name": "getLeaf",
      "outputs": [
        {
          "name": "root",
          "type": "uint256"
        }
      ],
      "payable": false,
      "stateMutability": "view",
      "type": "function"
    },
    {
      "constant": true,
      "inputs": [
        {
          "name": "",
          "type": "uint256"
        }
      ],
      "name": "commitments",
      "outputs": [
        {
          "name": "",
          "type": "bool"
        }
      ],
      "payable": false,
      "stateMutability": "view",
      "type": "function"
    },
    {
      "constant": true,
      "inputs": [],
      "name": "MT",
      "outputs": [
        {
          "name": "cur",
          "type": "uint256"
        }
      ],
      "payable": false,
      "stateMutability": "view",
      "type": "function"
    },
    {
      "constant": false,
      "inputs": [
        {
          "name": "leaf",
          "type": "uint256"
        },
        {
          "name": "depth",
          "type": "uint256"
        }
      ],
      "name": "getUniqueLeaf",
      "outputs": [
        {
          "name": "",
          "type": "uint256"
        }
      ],
      "payable": false,
      "stateMutability": "nonpayable",
      "type": "function"
    },
    {
      "constant": true,
      "inputs": [],
      "name": "getRoot",
      "outputs": [
        {
          "name": "root",
          "type": "uint256"
        }
      ],
      "payable": false,
      "stateMutability": "view",
      "type": "function"
    },
    {
      "constant": false,
      "inputs": [
        {
          "name": "input",
          "type": "uint256"
        },
        {
          "name": "sk",
          "type": "uint256"
        }
      ],
      "name": "getMimc",
      "outputs": [
        {
          "name": "",
          "type": "uint256"
        }
      ],
      "payable": false,
      "stateMutability": "nonpayable",
      "type": "function"
    },
    {
      "constant": false,
      "inputs": [
        {
          "name": "com",
          "type": "uint256"
        }
      ],
      "name": "insert",
      "outputs": [
        {
          "name": "",
          "type": "uint256"
        }
      ],
      "payable": false,
      "stateMutability": "nonpayable",
      "type": "function"
    },
    {
      "constant": false,
      "inputs": [
        {
          "name": "index",
          "type": "uint256"
        }
      ],
      "name": "getMerkelProof",
      "outputs": [
        {
          "name": "",
          "type": "uint256[8]"
        },
        {
          "name": "",
          "type": "uint256[8]"
        }
      ],
      "payable": false,
      "stateMutability": "nonpayable",
      "type": "function"
    },
    {
      "constant": true,
      "inputs": [],
      "name": "no_leaves",
      "outputs": [
        {
          "name": "",
          "type": "uint256"
        }
      ],
      "payable": false,
      "stateMutability": "view",
      "type": "function"
    },
    {
      "constant": true,
      "inputs": [
        {
          "name": "",
          "type": "uint256"
        }
      ],
      "name": "roots",
      "outputs": [
        {
          "name": "",
          "type": "bool"
        }
      ],
      "payable": false,
      "stateMutability": "view",
      "type": "function"
    },
    {
      "constant": true,
      "inputs": [],
      "name": "AMOUNT",
      "outputs": [
        {
          "name": "",
          "type": "uint256"
        }
      ],
      "payable": false,
      "stateMutability": "view",
      "type": "function"
    },
    {
      "constant": true,
      "inputs": [],
      "name": "tree_depth",
      "outputs": [
        {
          "name": "",
          "type": "uint256"
        }
      ],
      "payable": false,
      "stateMutability": "view",
      "type": "function"
    },
    {
      "constant": false,
      "inputs": [],
      "name": "updateTree",
      "outputs": [
        {
          "name": "root",
          "type": "uint256"
        }
      ],
      "payable": false,
      "stateMutability": "nonpayable",
      "type": "function"
    },
    {
      "constant": true,
      "inputs": [
        {
          "name": "a",
          "type": "uint256[2]"
        },
        {
          "name": "b",
          "type": "uint256[2][2]"
        },
        {
          "name": "c",
          "type": "uint256[2]"
        },
        {
          "name": "input",
          "type": "uint256[2]"
        }
      ],
      "name": "verifyProof",
      "outputs": [
        {
          "name": "r",
          "type": "bool"
        }
      ],
      "payable": false,
      "stateMutability": "view",
      "type": "function"
    },
    {
      "inputs": [
        {
          "name": "_mimc",
          "type": "address"
        }
      ],
      "payable": false,
      "stateMutability": "nonpayable",
      "type": "constructor"
    },
    {
      "anonymous": false,
      "inputs": [
        {
          "indexed": true,
          "name": "commitment",
          "type": "uint256"
        },
        {
          "indexed": false,
          "name": "leafIndex",
          "type": "uint256"
        },
        {
          "indexed": false,
          "name": "timestamp",
          "type": "uint256"
        }
      ],
      "name": "Deposit",
      "type": "event"
    },
    {
      "anonymous": false,
      "inputs": [
        {
          "indexed": false,
          "name": "to",
          "type": "address"
        },
        {
          "indexed": false,
          "name": "nullifierHash",
          "type": "uint256"
        }
      ],
      "name": "Withdraw",
      "type": "event"
    },
    {
      "anonymous": false,
      "inputs": [
        {
          "indexed": true,
          "name": "commitment",
          "type": "uint256"
        },
        {
          "indexed": false,
          "name": "leafIndex",
          "type": "uint256"
        },
        {
          "indexed": false,
          "name": "timestamp",
          "type": "uint256"
        }
      ],
      "name": "Forward",
      "type": "event"
    },
    {
      "anonymous": false,
      "inputs": [
        {
          "indexed": false,
          "name": "index",
          "type": "uint256"
        }
      ],
      "name": "LeafAdded",
      "type": "event"
    },
    {
      "anonymous": false,
      "inputs": [
        {
          "indexed": false,
          "name": "",
          "type": "uint256"
        }
      ],
      "name": "TestMimc",
      "type": "event"
    },
    {
      "anonymous": false,
      "inputs": [
        {
          "indexed": false,
          "name": "",
          "type": "uint256[8]"
        },
        {
          "indexed": false,
          "name": "",
          "type": "uint256[8]"
        }
      ],
      "name": "MerkleProof",
      "type": "event"
    },
    {
      "constant": false,
      "inputs": [
        {
          "name": "_commitment",
          "type": "uint256"
        }
      ],
      "name": "deposit",
      "outputs": [],
      "payable": true,
      "stateMutability": "payable",
      "type": "function"
    },
    {
      "constant": false,
      "inputs": [
        {
          "name": "a",
          "type": "uint256[2]"
        },
        {
          "name": "b",
          "type": "uint256[2][2]"
        },
        {
          "name": "c",
          "type": "uint256[2]"
        },
        {
          "name": "input",
          "type": "uint256[2]"
        }
      ],
      "name": "withdraw",
      "outputs": [],
      "payable": true,
      "stateMutability": "payable",
      "type": "function"
    },
    {
      "constant": false,
      "inputs": [
        {
          "name": "a",
          "type": "uint256[2]"
        },
        {
          "name": "b",
          "type": "uint256[2][2]"
        },
        {
          "name": "c",
          "type": "uint256[2]"
        },
        {
          "name": "input",
          "type": "uint256[2]"
        },
        {
          "name": "_commitment",
          "type": "uint256"
        }
      ],
      "name": "forward",
      "outputs": [
        {
          "name": "",
          "type": "address"
        }
      ],
      "payable": false,
      "stateMutability": "nonpayable",
      "type": "function"
    },
    {
      "constant": false,
      "inputs": [
        {
          "name": "_root",
          "type": "uint256"
        }
      ],
      "name": "isKnownRoot",
      "outputs": [
        {
          "name": "",
          "type": "bool"
        }
      ],
      "payable": false,
      "stateMutability": "nonpayable",
      "type": "function"
    }
  ],
  "bytecode": "0x6080604052600860015561010060025534801561001b57600080fd5b50604051602080612cd58339810180604052602081101561003b57600080fd5b8101908080519060200190929190505050808061090460006101000a81548173ffffffffffffffffffffffffffffffffffffffff021916908373ffffffffffffffffffffffffffffffffffffffff1602179055505050612c35806100a06000396000f3fe608060405260043610610107576000357c0100000000000000000000000000000000000000000000000000000000900463ffffffff1680631f79a1e91461010c5780632fb2798d1461015f578063402f825f146101b857806349ce8997146103705780634a1f11a7146103c35780634d556bed146103ee5780635ca1e1651461044757806367615a691461047257806390b5561d146104cb5780639ad1ee9d1461051a578063a03515fd146105c0578063a6232a93146105eb578063b6b55f251461063e578063c2b40ae41461066c578063c78784d7146106bf578063d178917614610820578063e08dfff81461084b578063ee427b1d14610876578063f5c9d69e146108a1575b600080fd5b34801561011857600080fd5b506101456004803603602081101561012f57600080fd5b8101908080359060200190929190505050610a27565b604051808215151515815260200191505060405180910390f35b34801561016b57600080fd5b506101a26004803603604081101561018257600080fd5b810190808035906020019092919080359060200190929190505050610a48565b6040518082815260200191505060405180910390f35b3480156101c457600080fd5b5061032e60048036036101608110156101dc57600080fd5b8101908080604001906002806020026040519081016040528092919082600260200280828437600081840152601f19601f82011690508083019250505050505091929192908060800190600280602002604051908101604052809291906000905b82821015610291578382604002016002806020026040519081016040528092919082600260200280828437600081840152601f19601f8201169050808301925050505050508152602001906001019061023d565b50505050919291929080604001906002806020026040519081016040528092919082600260200280828437600081840152601f19601f820116905080830192505050505050919291929080604001906002806020026040519081016040528092919082600260200280828437600081840152601f19601f820116905080830192505050505050919291929080359060200190929190505050610a79565b604051808273ffffffffffffffffffffffffffffffffffffffff1673ffffffffffffffffffffffffffffffffffffffff16815260200191505060405180910390f35b34801561037c57600080fd5b506103a96004803603602081101561039357600080fd5b8101908080359060200190929190505050610d8f565b604051808215151515815260200191505060405180910390f35b3480156103cf57600080fd5b506103d8610db0565b6040518082815260200191505060405180910390f35b3480156103fa57600080fd5b506104316004803603604081101561041157600080fd5b810190808035906020019092919080359060200190929190505050610dbc565b6040518082815260200191505060405180910390f35b34801561045357600080fd5b5061045c610ec3565b6040518082815260200191505060405180910390f35b34801561047e57600080fd5b506104b56004803603604081101561049557600080fd5b810190808035906020019092919080359060200190929190505050610ef4565b6040518082815260200191505060405180910390f35b3480156104d757600080fd5b50610504600480360360208110156104ee57600080fd5b81019080803590602001909291905050506110de565b6040518082815260200191505060405180910390f35b34801561052657600080fd5b506105536004803603602081101561053d57600080fd5b8101908080359060200190929190505050611191565b6040518083600860200280838360005b8381101561057e578082015181840152602081019050610563565b5050505090500182600860200280838360005b838110156105ac578082015181840152602081019050610591565b505050509050019250505060405180910390f35b3480156105cc57600080fd5b506105d561135b565b6040518082815260200191505060405180910390f35b3480156105f757600080fd5b506106246004803603602081101561060e57600080fd5b8101908080359060200190929190505050611361565b604051808215151515815260200191505060405180910390f35b61066a6004803603602081101561065457600080fd5b810190808035906020019092919050505061138c565b005b34801561067857600080fd5b506106a56004803603602081101561068f57600080fd5b81019080803590602001909291905050506114ea565b604051808215151515815260200191505060405180910390f35b61081e60048036036101408110156106d657600080fd5b8101908080604001906002806020026040519081016040528092919082600260200280828437600081840152601f19601f82011690508083019250505050505091929192908060800190600280602002604051908101604052809291906000905b8282101561078b578382604002016002806020026040519081016040528092919082600260200280828437600081840152601f19601f82011690508083019250505050505081526020019060010190610737565b50505050919291929080604001906002806020026040519081016040528092919082600260200280828437600081840152601f19601f820116905080830192505050505050919291929080604001906002806020026040519081016040528092919082600260200280828437600081840152601f19601f820116905080830192505050505050919291929050505061150b565b005b34801561082c57600080fd5b506108356117bd565b6040518082815260200191505060405180910390f35b34801561085757600080fd5b506108606117c8565b6040518082815260200191505060405180910390f35b34801561088257600080fd5b5061088b6117ce565b6040518082815260200191505060405180910390f35b3480156108ad57600080fd5b50610a0d60048036036101408110156108c557600080fd5b8101908080604001906002806020026040519081016040528092919082600260200280828437600081840152601f19601f82011690508083019250505050505091929192908060800190600280602002604051908101604052809291906000905b8282101561097a578382604002016002806020026040519081016040528092919082600260200280828437600081840152601f19601f82011690508083019250505050505081526020019060010190610926565b50505050919291929080604001906002806020026040519081016040528092919082600260200280828437600081840152601f19601f820116905080830192505050505050919291929080604001906002806020026040519081016040528092919082600260200280828437600081840152601f19601f8201169050808301925050505050509192919290505050611a1a565b604051808215151515815260200191505060405180910390f35b6109066020528060005260406000206000915054906101000a900460ff1681565b6000600360010183600981101515610a5c57fe5b61010002018261010081101515610a6f57fe5b0154905092915050565b600080836001600281101515610a8b57fe5b602002015190506000846000600281101515610aa357fe5b60200201519050610907600085815260200190815260200160002060009054906101000a900460ff16151515610b41576040517f08c379a000000000000000000000000000000000000000000000000000000000815260040180806020018281038252600f8152602001807f73616d6520636f6d6d69746d656e74000000000000000000000000000000000081525060200191505060405180910390fd5b610906600083815260200190815260200160002060009054906101000a900460ff16151515610bd8576040517f08c379a000000000000000000000000000000000000000000000000000000000815260040180806020018281038252601f8152602001807f54686520636f696e20686173206265656e20616c7265616479207370656e740081525060200191505060405180910390fd5b610be181611361565b1515610c55576040517f08c379a00000000000000000000000000000000000000000000000000000000081526004018080602001828103825260098152602001807f66616b6520726f6f74000000000000000000000000000000000000000000000081525060200191505060405180910390fd5b610c6188888888611a1a565b1515610cd5576040517f08c379a000000000000000000000000000000000000000000000000000000000815260040180806020018281038252600d8152602001807f496e76616c69642070726f6f660000000000000000000000000000000000000081525060200191505060405180910390fd5b6000610ce0856110de565b905060016109056000610cf1610ec3565b815260200190815260200160002060006101000a81548160ff0219169083151502179055506001610906600085815260200190815260200160002060006101000a81548160ff021916908315150217905550847f8b308ce1fde3cadb8cddda513c6aadca41a74c90b1361aba19bd3b9b6f811dd38242604051808381526020018281526020019250505060405180910390a250505095945050505050565b6109076020528060005260406000206000915054906101000a900460ff1681565b60038060000154905081565b600080831415610eba5760008090505b82811015610eb85761090460009054906101000a900473ffffffffffffffffffffffffffffffffffffffff1673ffffffffffffffffffffffffffffffffffffffff1663d15ca10985866040518363ffffffff167c01000000000000000000000000000000000000000000000000000000000281526004018083815260200182815260200192505050602060405180830381600087803b158015610e6e57600080fd5b505af1158015610e82573d6000803e3d6000fd5b505050506040513d6020811015610e9857600080fd5b810190808051906020019092919050505093508080600101915050610dcc565b505b82905092915050565b60006003600101600154600981101515610ed957fe5b6101000201600061010081101515610eed57fe5b0154905090565b60007fcf925dbffc79dd560a14e9fb74c7ba7fa5bef0e98c9fbd3c3b4a498c302c7ac161090460009054906101000a900473ffffffffffffffffffffffffffffffffffffffff1673ffffffffffffffffffffffffffffffffffffffff1663d15ca10985856040518363ffffffff167c01000000000000000000000000000000000000000000000000000000000281526004018083815260200182815260200192505050602060405180830381600087803b158015610fb157600080fd5b505af1158015610fc5573d6000803e3d6000fd5b505050506040513d6020811015610fdb57600080fd5b81019080805190602001909291905050506040518082815260200191505060405180910390a161090460009054906101000a900473ffffffffffffffffffffffffffffffffffffffff1673ffffffffffffffffffffffffffffffffffffffff1663d15ca10984846040518363ffffffff167c01000000000000000000000000000000000000000000000000000000000281526004018083815260200182815260200192505050602060405180830381600087803b15801561109b57600080fd5b505af11580156110af573d6000803e3d6000fd5b505050506040513d60208110156110c557600080fd5b8101908080519060200190929190505050905092915050565b6000600254600360000154141515156110f657600080fd5b816003600101600060098110151561110a57fe5b61010002016003600001546101008110151561112257fe5b018190555061112f6117ce565b507fee14d40b05aa42dee41bd28416dcb3ca632a33e9f6ea33a4bca7ffcb959388586003600001546040518082815260200191505060405180910390a16003600001600081548092919060010191905055506001600360000154039050919050565b611199612a81565b6111a1612a81565b6111a9612a81565b6111b1612a81565b60008090505b6001548110156112be5760006002878115156111cf57fe5b06141561123e57600183826008811015156111e657fe5b60200201818152505061122260036001018260098110151561120457fe5b6101000201600188016101008110151561121a57fe5b015482610dbc565b828260088110151561123057fe5b6020020181815250506112a2565b6000838260088110151561124e57fe5b60200201818152505061128a60036001018260098110151561126c57fe5b6101000201600188036101008110151561128257fe5b015482610dbc565b828260088110151561129857fe5b6020020181815250505b6002868115156112ae57fe5b04955080806001019150506111b7565b507fb32f3ab38e24247edb1bf988fa9b37c62ef392f712e2ec5537057af901fef39c81836040518083600860200280838360005b8381101561130d5780820151818401526020810190506112f2565b5050505090500182600860200280838360005b8381101561133b578082015181840152602081019050611320565b505050509050019250505060405180910390a18082935093505050915091565b60025481565b6000610905600083815260200190815260200160002060009054906101000a900460ff169050919050565b610907600082815260200190815260200160002060009054906101000a900460ff16151515611423576040517f08c379a000000000000000000000000000000000000000000000000000000000815260040180806020018281038252600f8152602001807f73616d6520636f6d6d69746d656e74000000000000000000000000000000000081525060200191505060405180910390fd5b662386f26fc100003414151561143857600080fd5b6000611443826110de565b90506001610907600084815260200190815260200160002060006101000a81548160ff02191690831515021790555060016109056000611481610ec3565b815260200190815260200160002060006101000a81548160ff021916908315150217905550817f33da4f9b82b3e18a281ca2cabbe2f076925692abb593b7ea3f850009e8ec97708242604051808381526020018281526020019250505060405180910390a25050565b6109056020528060005260406000206000915054906101000a900460ff1681565b600081600160028110151561151c57fe5b60200201519050600082600060028110151561153457fe5b60200201519050610906600083815260200190815260200160002060009054906101000a900460ff161515156115d2576040517f08c379a000000000000000000000000000000000000000000000000000000000815260040180806020018281038252601f8152602001807f54686520636f696e20686173206265656e20616c7265616479207370656e740081525060200191505060405180910390fd5b6115db81611361565b151561164f576040517f08c379a00000000000000000000000000000000000000000000000000000000081526004018080602001828103825260098152602001807f66616b6520726f6f74000000000000000000000000000000000000000000000081525060200191505060405180910390fd5b61165b86868686611a1a565b15156116cf576040517f08c379a000000000000000000000000000000000000000000000000000000000815260040180806020018281038252600d8152602001807f496e76616c69642070726f6f660000000000000000000000000000000000000081525060200191505060405180910390fd5b6001610906600084815260200190815260200160002060006101000a81548160ff0219169083151502179055503373ffffffffffffffffffffffffffffffffffffffff166108fc662386f26fc100009081150290604051600060405180830381858888f19350505050158015611749573d6000803e3d6000fd5b507f884edad9ce6fa2440d8a54cc123490eb96d2768479d49ff9c7366125a94243643383604051808373ffffffffffffffffffffffffffffffffffffffff1673ffffffffffffffffffffffffffffffffffffffff1681526020018281526020019250505060405180910390a1505050505050565b662386f26fc1000081565b60015481565b600080600360000154905060008060008090505b6001548110156119e75760006002858115156117fa57fe5b049050600060028681151561180b57fe5b0614156118755760036001018260098110151561182457fe5b6101000201856101008110151561183757fe5b0154935061186e60036001018360098110151561185057fe5b6101000201600187016101008110151561186657fe5b015483610dbc565b92506118d4565b6118a860036001018360098110151561188a57fe5b610100020160018703610100811015156118a057fe5b015483610dbc565b93506003600101826009811015156118bc57fe5b610100020185610100811015156118cf57fe5b015492505b61090460009054906101000a900473ffffffffffffffffffffffffffffffffffffffff1673ffffffffffffffffffffffffffffffffffffffff1663d15ca10985856040518363ffffffff167c01000000000000000000000000000000000000000000000000000000000281526004018083815260200182815260200192505050602060405180830381600087803b15801561196e57600080fd5b505af1158015611982573d6000803e3d6000fd5b505050506040513d602081101561199857600080fd5b81019080805190602001909291905050506003600101600184016009811015156119be57fe5b610100020182610100811015156119d157fe5b01819055508094505080806001019150506117e2565b5060036001016001546009811015156119fc57fe5b6101000201600061010081101515611a1057fe5b0154935050505090565b6000611a24612aa5565b6040805190810160405280876000600281101515611a3e57fe5b60200201518152602001876001600281101515611a5757fe5b6020020151815250816000018190525060408051908101604052806040805190810160405280886000600281101515611a8c57fe5b60200201516000600281101515611a9f57fe5b60200201518152602001886000600281101515611ab857fe5b60200201516001600281101515611acb57fe5b602002015181525081526020016040805190810160405280886001600281101515611af257fe5b60200201516000600281101515611b0557fe5b60200201518152602001886001600281101515611b1e57fe5b60200201516001600281101515611b3157fe5b602002015181525081525081602001819052506040805190810160405280856000600281101515611b5e57fe5b60200201518152602001856001600281101515611b7757fe5b6020020151815250816040018190525060606002604051908082528060200260200182016040528015611bb95781602001602082028038833980820191505090505b50905060008090505b6002811015611c07578481600281101515611bd957fe5b60200201518282815181101515611bec57fe5b90602001906020020181815250508080600101915050611bc2565b506000611c148284611c34565b1415611c2557600192505050611c2c565b6000925050505b949350505050565b6000807f30644e72e131a029b85045b68181585d2833e84879b9709143e1f593f00000019050611c62612ada565b611c6a611e7e565b90508060800151516001865101141515611cec576040517f08c379a00000000000000000000000000000000000000000000000000000000081526004018080602001828103825260128152602001807f76657269666965722d6261642d696e707574000000000000000000000000000081525060200191505060405180910390fd5b611cf4612b23565b6040805190810160405280600081526020016000815250905060008090505b8651811015611e0157838782815181101515611d2b57fe5b90602001906020020151101515611daa576040517f08c379a000000000000000000000000000000000000000000000000000000000815260040180806020018281038252601f8152602001807f76657269666965722d6774652d736e61726b2d7363616c61722d6669656c640081525060200191505060405180910390fd5b611df282611ded856080015160018501815181101515611dc657fe5b906020019060200201518a85815181101515611dde57fe5b906020019060200201516122d7565b6123da565b91508080600101915050611d13565b50611e288183608001516000815181101515611e1957fe5b906020019060200201516123da565b9050611e5e611e3a86600001516124fe565b8660200151846000015185602001518587604001518b60400151896060015161259a565b1515611e705760019350505050611e78565b600093505050505b92915050565b611e86612ada565b60408051908101604052807f2271d38825d978188abeebc7159e89615d853665324a2125f6c85dab5fb906b281526020017f1a0cb18e8f73abec3d5a51e3f3645fdc160eebdd2afd48bb2fa4e44b16d182398152508160000181905250604080519081016040528060408051908101604052807f27efb1bb21f7bb7c1f0afc5a03cc8d22301569a3494db3197c0eca797aa154b481526020017f29e52b09b6609f3c4f3b0a48a3a76d8688ea066ca43e1d3affff7c447f72be05815250815260200160408051908101604052807f2a25f1276f1bddd7e6b38d43ec7c79916b7d8dfd5939a1aeb6ebb062ab8afb0281526020017f2b7f84fefb41da2b2d3310e409530483626d8ba08e103a1e397efd38b8bbbacd8152508152508160200181905250604080519081016040528060408051908101604052807f198e9393920d483a7260bfb731fb5d25f1aa493335a9e71297e485b7aef312c281526020017f1800deef121f1e76426a00665e5c4479674322d4f75edadd46debd5cd992f6ed815250815260200160408051908101604052807f090689d0585ff075ec9e99ad690c3395bc4b313370b38ef355acdadcd122975b81526020017f12c85ea5db8c6deb4aab71808dcb408fe3d1e7690c43d37b4ce6cc0166fa7daa8152508152508160400181905250604080519081016040528060408051908101604052807f2845a437ef49d53e9d1f79d27e71f42df555ddf30cc9c5c517c435cb01b3f29081526020017f1e96e1947ceb1f1bfcebd2c68a007e4ab166ca6e977b90a02e98f8aa01a7e9de815250815260200160408051908101604052807f120cd79aae44d0da3c3acee53a36f135425362864fecf861dcb28d7b8a0bd84c81526020017f29e5008bc6abeb28581481b357142adbe1298ea522c2bc545c7a319cb974a80a8152508152508160600181905250600360405190808252806020026020018201604052801561216d57816020015b61215a612b3d565b8152602001906001900390816121525790505b50816080018190525060408051908101604052807f2d78a4deba23768e469775f20b76157ade28b8b01075f04ae0d9bea7403b023e81526020017ef99bda764ca80476938efcb83a56b192f0f9c557062da8462adbd845e9a1c7815250816080015160008151811015156121dd57fe5b9060200190602002018190525060408051908101604052807f16268ffc1a8ffd54bcf605927d20b72c3ee3093babf6310a98dc1e9c1f616fa781526020017f1ba35d87ce140ef0285e63e80e5229aaa13f2deef05bd9f1cf6f12dc6de7cdff8152508160800151600181518110151561225257fe5b9060200190602002018190525060408051908101604052807f09bfcbda51507a7b71cad4b8b29bce348c3c25ff43d5d34d1b1f7b3b479e8cef81526020017f2992e0d536e75b3e157cf03f7ef6564cc5cb05bd1332f59de56313b3787e2056815250816080015160028151811015156122c757fe5b9060200190602002018190525090565b6122df612b23565b6122e7612b57565b83600001518160006003811015156122fb57fe5b602002018181525050836020015181600160038110151561231857fe5b6020020181815250508281600260038110151561233157fe5b602002018181525050600060608360808460076107d05a03fa9050806000811461235a5761235c565bfe5b508015156123d2576040517f08c379a00000000000000000000000000000000000000000000000000000000081526004018080602001828103825260128152602001807f70616972696e672d6d756c2d6661696c6564000000000000000000000000000081525060200191505060405180910390fd5b505092915050565b6123e2612b23565b6123ea612b7a565b83600001518160006004811015156123fe57fe5b602002018181525050836020015181600160048110151561241b57fe5b602002018181525050826000015181600260048110151561243857fe5b602002018181525050826020015181600360048110151561245557fe5b602002018181525050600060608360c08460066107d05a03fa9050806000811461247e57612480565bfe5b508015156124f6576040517f08c379a00000000000000000000000000000000000000000000000000000000081526004018080602001828103825260128152602001807f70616972696e672d6164642d6661696c6564000000000000000000000000000081525060200191505060405180910390fd5b505092915050565b612506612b23565b60007f30644e72e131a029b85045b68181585d97816a916871ca8d3c208c16d87cfd47905060008360000151148015612543575060008360200151145b15612567576040805190810160405280600081526020016000815250915050612595565b60408051908101604052808460000151815260200182856020015181151561258b57fe5b0683038152509150505b919050565b6000606060046040519080825280602002602001820160405280156125d957816020015b6125c6612b3d565b8152602001906001900390816125be5790505b5090506060600460405190808252806020026020018201604052801561261957816020015b612606612b9d565b8152602001906001900390816125fe5790505b5090508a82600081518110151561262c57fe5b906020019060200201819052508882600181518110151561264957fe5b906020019060200201819052508682600281518110151561266657fe5b906020019060200201819052508482600381518110151561268357fe5b90602001906020020181905250898160008151811015156126a057fe5b90602001906020020181905250878160018151811015156126bd57fe5b90602001906020020181905250858160028151811015156126da57fe5b90602001906020020181905250838160038151811015156126f757fe5b9060200190602002018190525061270e828261271e565b9250505098975050505050505050565b600081518351141515612799576040517f08c379a00000000000000000000000000000000000000000000000000000000081526004018080602001828103825260168152602001807f70616972696e672d6c656e677468732d6661696c65640000000000000000000081525060200191505060405180910390fd5b60008351905060006006820290506060816040519080825280602002602001820160405280156127d85781602001602082028038833980820191505090505b50905060008090505b838110156129b65786818151811015156127f757fe5b9060200190602002015160000151826000600684020181518110151561281957fe5b9060200190602002018181525050868181518110151561283557fe5b9060200190602002015160200151826001600684020181518110151561285757fe5b9060200190602002018181525050858181518110151561287357fe5b9060200190602002015160000151600060028110151561288f57fe5b602002015182600260068402018151811015156128a857fe5b906020019060200201818152505085818151811015156128c457fe5b906020019060200201516000015160016002811015156128e057fe5b602002015182600360068402018151811015156128f957fe5b9060200190602002018181525050858181518110151561291557fe5b9060200190602002015160200151600060028110151561293157fe5b6020020151826004600684020181518110151561294a57fe5b9060200190602002018181525050858181518110151561296657fe5b9060200190602002015160200151600160028110151561298257fe5b6020020151826005600684020181518110151561299b57fe5b906020019060200201818152505080806001019150506127e1565b506129bf612bc4565b6000602082602086026020860160086107d05a03fa905080600081146129e4576129e6565bfe5b50801515612a5c576040517f08c379a00000000000000000000000000000000000000000000000000000000081526004018080602001828103825260158152602001807f70616972696e672d6f70636f64652d6661696c6564000000000000000000000081525060200191505060405180910390fd5b6000826000600181101515612a6d57fe5b602002015114159550505050505092915050565b61010060405190810160405280600890602082028038833980820191505090505090565b61010060405190810160405280612aba612b3d565b8152602001612ac7612b9d565b8152602001612ad4612b3d565b81525090565b6101e060405190810160405280612aef612b3d565b8152602001612afc612b9d565b8152602001612b09612b9d565b8152602001612b16612b9d565b8152602001606081525090565b604080519081016040528060008152602001600081525090565b604080519081016040528060008152602001600081525090565b606060405190810160405280600390602082028038833980820191505090505090565b608060405190810160405280600490602082028038833980820191505090505090565b608060405190810160405280612bb1612be7565b8152602001612bbe612be7565b81525090565b602060405190810160405280600190602082028038833980820191505090505090565b604080519081016040528060029060208202803883398082019150509050509056fea165627a7a7230582055f25c5776f23be44d04437da7192c3534dc5f0beeeec84dc424cc517fef447d0029",
  "source": "pragma solidity ^0.5.0;\n\nimport \"./merkleTree.sol\";\nimport \"./verifier.sol\";\n\ncontract mix is MerkelTree ,Verifier {\n    mapping(uint256 => bool) public roots; // Merkle tree root\n    mapping(uint256 => bool) public nullifierHashes; // \n    mapping(uint256 => bool) public commitments; // \n    \n\n    uint256 constant public AMOUNT = 0.01 ether;\n\n    event Deposit(uint256 indexed commitment, uint256 leafIndex, uint256 timestamp);\n    event Withdraw(address to, uint256 nullifierHash);\n    event Forward(uint256 indexed commitment, uint256 leafIndex, uint256 timestamp);\n\n    // Constructor\n    constructor  (address _mimc) MerkelTree(_mimc) public {\n        \n    }\n    \n\n    function deposit (uint256 _commitment) payable public{\n        require(!commitments[_commitment], \"same commitment\");\n    \n        require(msg.value == AMOUNT);\n        uint256 insertedIndex = insert(_commitment);\n        commitments[_commitment] = true;\n        roots[getRoot()] = true;\n        emit Deposit(_commitment,insertedIndex,block.timestamp);\n    }\n\n    function withdraw(uint[2] memory a,\n            uint[2][2] memory b,\n            uint[2] memory c,\n            uint[2] memory input) public payable {\n                \n        uint256 _nullifierHash = uint256(input[1]);\n        uint256 _root = uint256(input[0]);\n\n        require(!nullifierHashes[_nullifierHash], \"The coin has been already spent\");\n        require(isKnownRoot(_root), \"fake root\"); \n        require(verifyProof(a,b,c,input), \"Invalid proof\");\n\n        nullifierHashes[_nullifierHash] = true;\n        msg.sender.transfer(AMOUNT); // \n        emit Withdraw(msg.sender, _nullifierHash);\n    }\n\n    function forward (\n            uint[2] memory a,\n            uint[2][2] memory b,\n            uint[2] memory c,\n            uint[2] memory input,\n            uint256 _commitment\n) public returns (address) {\n\n        uint256 _nullifierHash = uint256(input[1]);\n        uint256 _root = uint256(input[0]);\n        \n        require(!commitments[_commitment], \"same commitment\");\n        require(!nullifierHashes[_nullifierHash], \"The coin has been already spent\");\n        require(isKnownRoot(_root), \"fake root\"); \n        require(verifyProof(a,b,c,input), \"Invalid proof\");\n\n      \n        uint insertedIndex = insert(_commitment);\n        roots[getRoot()] = true;\n       \n        nullifierHashes[_nullifierHash] = true;\n        emit Forward(_commitment,insertedIndex,block.timestamp);\n    }\n\n    function isKnownRoot(uint256 _root) public returns(bool){\n        return roots[_root];\n    }\n\n}",
  "sourcePath": "/Users/xuzzz/Desktop/test/src/contracts/mix.sol",
  "compiler": {
    "name": "solc",
    "version": "0.5.0+commit.1d4f565a.Emscripten.clang"
  },
  "schemaVersion": "3.4.11",
  "updatedAt": "2022-12-03T08:16:38.734Z",
  "devdoc": {
    "methods": {
      "verifyProof(uint256[2],uint256[2][2],uint256[2],uint256[2])": {
        "return": "r  bool true if proof is valid"
      }
    }
  },
  "userdoc": {
    "methods": {}
  }
}